{
  "contractName": "IPLGame",
  "abi": [
    {
      "constant": true,
      "inputs": [
        {
          "name": "",
          "type": "uint256"
        }
      ],
      "name": "teamName",
      "outputs": [
        {
          "name": "",
          "type": "string"
        }
      ],
      "payable": false,
      "stateMutability": "view",
      "type": "function"
    },
    {
      "constant": false,
      "inputs": [],
      "name": "kill",
      "outputs": [],
      "payable": false,
      "stateMutability": "nonpayable",
      "type": "function"
    },
    {
      "constant": true,
      "inputs": [
        {
          "name": "",
          "type": "uint256"
        },
        {
          "name": "",
          "type": "address"
        }
      ],
      "name": "betAmount",
      "outputs": [
        {
          "name": "",
          "type": "uint256"
        }
      ],
      "payable": false,
      "stateMutability": "view",
      "type": "function"
    },
    {
      "anonymous": false,
      "inputs": [
        {
          "indexed": false,
          "name": "winner",
          "type": "address"
        },
        {
          "indexed": false,
          "name": "amount",
          "type": "uint256"
        }
      ],
      "name": "Winner",
      "type": "event"
    },
    {
      "constant": false,
      "inputs": [
        {
          "name": "_matchId",
          "type": "uint256"
        },
        {
          "name": "_team",
          "type": "uint256"
        }
      ],
      "name": "makeBet",
      "outputs": [],
      "payable": true,
      "stateMutability": "payable",
      "type": "function"
    },
    {
      "constant": false,
      "inputs": [
        {
          "name": "_index",
          "type": "uint256"
        },
        {
          "name": "_team",
          "type": "string"
        }
      ],
      "name": "addTeams",
      "outputs": [],
      "payable": false,
      "stateMutability": "nonpayable",
      "type": "function"
    },
    {
      "constant": true,
      "inputs": [
        {
          "name": "_matchId",
          "type": "uint256"
        },
        {
          "name": "_team",
          "type": "uint256"
        }
      ],
      "name": "getPredictions",
      "outputs": [
        {
          "name": "",
          "type": "address[]"
        }
      ],
      "payable": false,
      "stateMutability": "view",
      "type": "function"
    },
    {
      "constant": false,
      "inputs": [
        {
          "name": "_matchId",
          "type": "uint256"
        },
        {
          "name": "_winningTeamId",
          "type": "uint256"
        },
        {
          "name": "_losingTeamId",
          "type": "uint256"
        }
      ],
      "name": "setResult",
      "outputs": [],
      "payable": false,
      "stateMutability": "nonpayable",
      "type": "function"
    }
  ],
  "bytecode": "0x608060405266038d7ea4c68000600555336000806101000a81548173ffffffffffffffffffffffffffffffffffffffff021916908373ffffffffffffffffffffffffffffffffffffffff1602179055506110138061005e6000396000f300608060405260043610610083576000357c0100000000000000000000000000000000000000000000000000000000900463ffffffff1680630f64f33d14610088578063181de95e1461012e57806341c0e1b51461016f57806383c996ee146101865780639bec02b1146101f9578063a0628fa314610285578063df898e32146102e6575b600080fd5b34801561009457600080fd5b506100b360048036038101908080359060200190929190505050610310565b6040518080602001828103825283818151815260200191508051906020019080838360005b838110156100f35780820151818401526020810190506100d8565b50505050905090810190601f1680156101205780820380516001836020036101000a031916815260200191505b509250505060405180910390f35b34801561013a57600080fd5b5061016d6004803603810190808035906020019092919080359060200190929190803590602001909291905050506103c0565b005b34801561017b57600080fd5b50610184610a18565b005b34801561019257600080fd5b506101f760048036038101908080359060200190929190803590602001908201803590602001908080601f0160208091040260200160405190810160405280939291908181526020018383808284378201915050505050509192919290505050610b17565b005b34801561020557600080fd5b5061022e6004803603810190808035906020019092919080359060200190929190505050610c09565b6040518080602001828103825283818151815260200191508051906020019060200280838360005b83811015610271578082015181840152602081019050610256565b505050509050019250505060405180910390f35b34801561029157600080fd5b506102d060048036038101908080359060200190929190803573ffffffffffffffffffffffffffffffffffffffff169060200190929190505050610d2c565b6040518082815260200191505060405180910390f35b61030e6004803603810190808035906020019092919080359060200190929190505050610d51565b005b60046020528060005260406000206000915090508054600181600116156101000203166002900480601f0160208091040260200160405190810160405280929190818152602001828054600181600116156101000203166002900480156103b85780601f1061038d576101008083540402835291602001916103b8565b820191906000526020600020905b81548152906001019060200180831161039b57829003601f168201915b505050505081565b60606000806000606060008060009054906101000a900473ffffffffffffffffffffffffffffffffffffffff168073ffffffffffffffffffffffffffffffffffffffff163373ffffffffffffffffffffffffffffffffffffffff16141515610490576040517f08c379a00000000000000000000000000000000000000000000000000000000081526004018080602001828103825260158152602001807f53656e646572206e6f7420617574686f72697a6564000000000000000000000081525060200191505060405180910390fd5b6001548a14151561052f576040517f08c379a00000000000000000000000000000000000000000000000000000000081526004018080602001828103825260258152602001807f4f6e6c79207365742074686520726573756c747320666f722063757272656e7481526020017f2067616d6500000000000000000000000000000000000000000000000000000081525060400191505060405180910390fd5b600260008b8152602001908152602001600020600460008a815260200190815260200160002060405180828054600181600116156101000203166002900480156105b05780601f1061058e5761010080835404028352918201916105b0565b820191906000526020600020905b81548152906001019060200180831161059c575b5050915050908152602001604051809103902080548060200260200160405190810160405280929190818152602001828054801561064357602002820191906000526020600020905b8160009054906101000a900473ffffffffffffffffffffffffffffffffffffffff1673ffffffffffffffffffffffffffffffffffffffff16815260200190600101908083116105f9575b50505050509650600093505b86518410156106d157600360008b81526020019081526020016000206000888681518110151561067b57fe5b9060200190602002015173ffffffffffffffffffffffffffffffffffffffff1673ffffffffffffffffffffffffffffffffffffffff1681526020019081526020016000205486019550838060010194505061064f565b6009600a878115156106df57fe5b04029550600260008b8152602001908152602001600020600460008b815260200190815260200160002060405180828054600181600116156101000203166002900480156107645780601f10610742576101008083540402835291820191610764565b820191906000526020600020905b815481529060010190602001808311610750575b505091505090815260200160405180910390208054806020026020016040519081016040528092919081815260200182805480156107f757602002820191906000526020600020905b8160009054906101000a900473ffffffffffffffffffffffffffffffffffffffff1673ffffffffffffffffffffffffffffffffffffffff16815260200190600101908083116107ad575b50505050509250600093505b825184101561088557600360008b81526020019081526020016000206000848681518110151561082f57fe5b9060200190602002015173ffffffffffffffffffffffffffffffffffffffff1673ffffffffffffffffffffffffffffffffffffffff16815260200190815260200160002054850194508380600101945050610803565b600093505b82518410156109fa57600360008b8152602001908152602001600020600084868151811015156108b657fe5b9060200190602002015173ffffffffffffffffffffffffffffffffffffffff1673ffffffffffffffffffffffffffffffffffffffff168152602001908152602001600020546001868881151561090857fe5b0401029150828481518110151561091b57fe5b9060200190602002015173ffffffffffffffffffffffffffffffffffffffff166108fc839081150290604051600060405180830381858888f1935050505015801561096a573d6000803e3d6000fd5b507f9c2270628a9b29d30ae96b6c4c14ed646ee134febdce38a5b77f2bde9cea2e20838581518110151561099a57fe5b9060200190602002015183604051808373ffffffffffffffffffffffffffffffffffffffff1673ffffffffffffffffffffffffffffffffffffffff1681526020018281526020019250505060405180910390a1838060010194505061088a565b60016000815480929190600101919050555050505050505050505050565b6000809054906101000a900473ffffffffffffffffffffffffffffffffffffffff168073ffffffffffffffffffffffffffffffffffffffff163373ffffffffffffffffffffffffffffffffffffffff16141515610add576040517f08c379a00000000000000000000000000000000000000000000000000000000081526004018080602001828103825260158152602001807f53656e646572206e6f7420617574686f72697a6564000000000000000000000081525060200191505060405180910390fd5b6000809054906101000a900473ffffffffffffffffffffffffffffffffffffffff1673ffffffffffffffffffffffffffffffffffffffff16ff5b6000809054906101000a900473ffffffffffffffffffffffffffffffffffffffff168073ffffffffffffffffffffffffffffffffffffffff163373ffffffffffffffffffffffffffffffffffffffff16141515610bdc576040517f08c379a00000000000000000000000000000000000000000000000000000000081526004018080602001828103825260158152602001807f53656e646572206e6f7420617574686f72697a6564000000000000000000000081525060200191505060405180910390fd5b81600460008581526020019081526020016000209080519060200190610c03929190610f42565b50505050565b606060026000848152602001908152602001600020600460008481526020019081526020016000206040518082805460018160011615610100020316600290048015610c8c5780601f10610c6a576101008083540402835291820191610c8c565b820191906000526020600020905b815481529060010190602001808311610c78575b50509150509081526020016040518091039020805480602002602001604051908101604052809291908181526020018280548015610d1f57602002820191906000526020600020905b8160009054906101000a900473ffffffffffffffffffffffffffffffffffffffff1673ffffffffffffffffffffffffffffffffffffffff1681526020019060010190808311610cd5575b5050505050905092915050565b6003602052816000526040600020602052806000526040600020600091509150505481565b6005543410151515610df1576040517f08c379a00000000000000000000000000000000000000000000000000000000081526004018080602001828103825260268152602001807f4d696e696d756d20626574206f6620312066696e6e65792063616e206265207081526020017f6c616365642e000000000000000000000000000000000000000000000000000081525060400191505060405180910390fd5b60026000838152602001908152602001600020600460008381526020019081526020016000206040518082805460018160011615610100020316600290048015610e725780601f10610e50576101008083540402835291820191610e72565b820191906000526020600020905b815481529060010190602001808311610e5e575b505091505090815260200160405180910390203390806001815401808255809150509060018203906000526020600020016000909192909190916101000a81548173ffffffffffffffffffffffffffffffffffffffff021916908373ffffffffffffffffffffffffffffffffffffffff16021790555050346003600084815260200190815260200160002060003373ffffffffffffffffffffffffffffffffffffffff1673ffffffffffffffffffffffffffffffffffffffff168152602001908152602001600020819055505050565b828054600181600116156101000203166002900490600052602060002090601f016020900481019282601f10610f8357805160ff1916838001178555610fb1565b82800160010185558215610fb1579182015b82811115610fb0578251825591602001919060010190610f95565b5b509050610fbe9190610fc2565b5090565b610fe491905b80821115610fe0576000816000905550600101610fc8565b5090565b905600a165627a7a72305820a98aa1ce5afe76027077af43b31dee6e30c8196f6047120d58d1955e4af9f48d0029",
  "source": "pragma solidity ^0.4.23;\r\nimport \"./Mortal.sol\";\r\n\r\n\r\ncontract IPLGame is Mortal {\r\n    uint currentGame;\r\n    mapping(uint=>mapping(string=>address[])) predictions;\r\n    mapping(uint=>mapping(address=>uint)) public betAmount;\r\n    mapping(uint=>string) public teamName;\r\n    event Winner(address winner, uint amount);\r\n\r\n    uint minimumAmount = 1 finney;\r\n    function makeBet(uint _matchId, uint _team) public payable {\r\n        require((msg.value >= minimumAmount), \"Minimum bet of 1 finney can be placed.\");\r\n        predictions[_matchId][teamName[_team]].push(msg.sender);\r\n        betAmount[_matchId][msg.sender] = msg.value;\r\n    }\r\n    function addTeams(uint _index, string _team) onlyOwner(owner) public {\r\n        teamName[_index] = _team;\r\n    }\r\n    function getPredictions(uint _matchId, uint _team) public view returns (address[]) {\r\n        return predictions[_matchId][teamName[_team]];\r\n    }\r\n    function setResult(uint _matchId, uint _winningTeamId, uint _losingTeamId) onlyOwner(owner) public {\r\n        require((_matchId == currentGame), \"Only set the results for current game\");\r\n\r\n        address[] memory losers = predictions[_matchId][teamName[_losingTeamId]];\r\n        uint toDistribute;\r\n        uint total;\r\n        for(uint i = 0; i < losers.length; i++){\r\n            toDistribute += betAmount[_matchId][losers[i]];\r\n        }\r\n        toDistribute = (toDistribute/10)*9;\r\n\r\n        address[] memory winners = predictions[_matchId][teamName[_winningTeamId]];\r\n        for(i = 0; i < winners.length; i++){\r\n            total += betAmount[_matchId][winners[i]];\r\n        }\r\n        for(i = 0; i < winners.length; i++){\r\n            uint transferAmount = ((toDistribute/total)+1)*betAmount[_matchId][winners[i]];\r\n            winners[i].transfer(transferAmount);\r\n            emit Winner(winners[i], transferAmount);\r\n        }\r\n        currentGame++;\r\n    }\r\n}",
  "sourcePath": "C:\\Users\\shubham.suyal\\Desktop\\blockchain training\\IPL\\contracts\\IPLGame.sol",
  "compiler": {
    "name": "solc",
    "version": "0.4.23+commit.124ca40d.Emscripten.clang"
  },
  "schemaVersion": "2.0.0",
  "updatedAt": "2018-05-11T04:02:53.753Z"
}