{
  "contractName": "IPLGame",
  "abi": [
    {
      "constant": false,
      "inputs": [],
      "name": "kill",
      "outputs": [],
      "payable": false,
      "stateMutability": "nonpayable",
      "type": "function"
    },
    {
      "constant": true,
      "inputs": [
        {
          "name": "",
          "type": "uint256"
        },
        {
          "name": "",
          "type": "address"
        }
      ],
      "name": "betAmount",
      "outputs": [
        {
          "name": "",
          "type": "uint256"
        }
      ],
      "payable": false,
      "stateMutability": "view",
      "type": "function"
    },
    {
      "anonymous": false,
      "inputs": [
        {
          "indexed": true,
          "name": "winner",
          "type": "address"
        },
        {
          "indexed": false,
          "name": "amount",
          "type": "uint256"
        }
      ],
      "name": "Winner",
      "type": "event"
    },
    {
      "anonymous": false,
      "inputs": [
        {
          "indexed": true,
          "name": "bettor",
          "type": "address"
        },
        {
          "indexed": true,
          "name": "matchId",
          "type": "uint256"
        },
        {
          "indexed": false,
          "name": "team",
          "type": "string"
        },
        {
          "indexed": false,
          "name": "amount",
          "type": "uint256"
        }
      ],
      "name": "BetPlaced",
      "type": "event"
    },
    {
      "anonymous": false,
      "inputs": [
        {
          "indexed": true,
          "name": "matchId",
          "type": "uint256"
        },
        {
          "indexed": false,
          "name": "winningTeamId",
          "type": "string"
        },
        {
          "indexed": false,
          "name": "losingTeamId",
          "type": "string"
        }
      ],
      "name": "ResultSet",
      "type": "event"
    },
    {
      "constant": false,
      "inputs": [
        {
          "name": "_matchId",
          "type": "uint256"
        },
        {
          "name": "_team",
          "type": "string"
        }
      ],
      "name": "makeBet",
      "outputs": [],
      "payable": true,
      "stateMutability": "payable",
      "type": "function"
    },
    {
      "constant": true,
      "inputs": [
        {
          "name": "_matchId",
          "type": "uint256"
        },
        {
          "name": "_team",
          "type": "string"
        }
      ],
      "name": "getPredictions",
      "outputs": [
        {
          "name": "",
          "type": "address[]"
        }
      ],
      "payable": false,
      "stateMutability": "view",
      "type": "function"
    },
    {
      "constant": true,
      "inputs": [
        {
          "name": "_matchId",
          "type": "uint256"
        },
        {
          "name": "_team",
          "type": "string"
        }
      ],
      "name": "getPredictionNumber",
      "outputs": [
        {
          "name": "",
          "type": "uint256"
        }
      ],
      "payable": false,
      "stateMutability": "view",
      "type": "function"
    },
    {
      "constant": false,
      "inputs": [
        {
          "name": "_matchId",
          "type": "uint256"
        },
        {
          "name": "_winningTeamId",
          "type": "string"
        },
        {
          "name": "_losingTeamId",
          "type": "string"
        }
      ],
      "name": "setResult",
      "outputs": [],
      "payable": false,
      "stateMutability": "nonpayable",
      "type": "function"
    },
    {
      "constant": true,
      "inputs": [
        {
          "name": "_matchId",
          "type": "uint256"
        }
      ],
      "name": "getResult",
      "outputs": [
        {
          "name": "",
          "type": "string"
        }
      ],
      "payable": false,
      "stateMutability": "view",
      "type": "function"
    },
    {
      "constant": true,
      "inputs": [],
      "name": "playerBalance",
      "outputs": [
        {
          "name": "",
          "type": "uint256"
        }
      ],
      "payable": false,
      "stateMutability": "view",
      "type": "function"
    }
  ],
  "bytecode": "0x60806040526001805566038d7ea4c68000600255336000806101000a81548173ffffffffffffffffffffffffffffffffffffffff021916908373ffffffffffffffffffffffffffffffffffffffff16021790555061128c806100626000396000f30060806040526004361061008e576000357c0100000000000000000000000000000000000000000000000000000000900463ffffffff1680630cd54ecc1461009357806341c0e1b5146100f9578063651f066a1461011057806369e6a3df1461013b578063995e4339146101f4578063a0628fa31461029a578063aa278b59146102fb578063f68a670e146103c3575b600080fd5b6100f760048036038101908080359060200190929190803590602001908201803590602001908080601f016020809104026020016040519081016040528093929190818152602001838380828437820191505050505050919291929050505061044a565b005b34801561010557600080fd5b5061010e6106df565b005b34801561011c57600080fd5b506101256107de565b6040518082815260200191505060405180910390f35b34801561014757600080fd5b506101f260048036038101908080359060200190929190803590602001908201803590602001908080601f0160208091040260200160405190810160405280939291908181526020018383808284378201915050505050509192919290803590602001908201803590602001908080601f016020809104026020016040519081016040528093929190818152602001838380828437820191505050505050919291929050505061080f565b005b34801561020057600080fd5b5061021f60048036038101908080359060200190929190505050610f4c565b6040518080602001828103825283818151815260200191508051906020019080838360005b8381101561025f578082015181840152602081019050610244565b50505050905090810190601f16801561028c5780820380516001836020036101000a031916815260200191505b509250505060405180910390f35b3480156102a657600080fd5b506102e560048036038101908080359060200190929190803573ffffffffffffffffffffffffffffffffffffffff169060200190929190505050611001565b6040518082815260200191505060405180910390f35b34801561030757600080fd5b5061036c60048036038101908080359060200190929190803590602001908201803590602001908080601f0160208091040260200160405190810160405280939291908181526020018383808284378201915050505050509192919290505050611026565b6040518080602001828103825283818151815260200191508051906020019060200280838360005b838110156103af578082015181840152602081019050610394565b505050509050019250505060405180910390f35b3480156103cf57600080fd5b5061043460048036038101908080359060200190929190803590602001908201803590602001908080601f0160208091040260200160405190810160405280939291908181526020018383808284378201915050505050509192919290505050611131565b6040518082815260200191505060405180910390f35b60025434101515156104ea576040517f08c379a00000000000000000000000000000000000000000000000000000000081526004018080602001828103825260268152602001807f4d696e696d756d20626574206f6620312066696e6e65792063616e206265207081526020017f6c616365642e000000000000000000000000000000000000000000000000000081525060400191505060405180910390fd5b60036000838152602001908152602001600020816040518082805190602001908083835b602083101515610533578051825260208201915060208101905060208303925061050e565b6001836020036101000a03801982511681845116808217855250505050505090500191505090815260200160405180910390203390806001815401808255809150509060018203906000526020600020016000909192909190916101000a81548173ffffffffffffffffffffffffffffffffffffffff021916908373ffffffffffffffffffffffffffffffffffffffff16021790555050346004600084815260200190815260200160002060003373ffffffffffffffffffffffffffffffffffffffff1673ffffffffffffffffffffffffffffffffffffffff16815260200190815260200160002081905550813373ffffffffffffffffffffffffffffffffffffffff167f02337a2de26093979fec9e25c4d2c7b6a8bd0c2fd9b3214ded831ac4f3d391e783346040518080602001838152602001828103825284818151815260200191508051906020019080838360005b838110156106a0578082015181840152602081019050610685565b50505050905090810190601f1680156106cd5780820380516001836020036101000a031916815260200191505b50935050505060405180910390a35050565b6000809054906101000a900473ffffffffffffffffffffffffffffffffffffffff168073ffffffffffffffffffffffffffffffffffffffff163373ffffffffffffffffffffffffffffffffffffffff161415156107a4576040517f08c379a00000000000000000000000000000000000000000000000000000000081526004018080602001828103825260158152602001807f53656e646572206e6f7420617574686f72697a6564000000000000000000000081525060200191505060405180910390fd5b6000809054906101000a900473ffffffffffffffffffffffffffffffffffffffff1673ffffffffffffffffffffffffffffffffffffffff16ff5b600066038d7ea4c680003373ffffffffffffffffffffffffffffffffffffffff163181151561080957fe5b04905090565b60606000806000606060008060009054906101000a900473ffffffffffffffffffffffffffffffffffffffff168073ffffffffffffffffffffffffffffffffffffffff163373ffffffffffffffffffffffffffffffffffffffff161415156108df576040517f08c379a00000000000000000000000000000000000000000000000000000000081526004018080602001828103825260158152602001807f53656e646572206e6f7420617574686f72697a6564000000000000000000000081525060200191505060405180910390fd5b6001548a14151561097e576040517f08c379a00000000000000000000000000000000000000000000000000000000081526004018080602001828103825260258152602001807f4f6e6c79207365742074686520726573756c747320666f722063757272656e7481526020017f2067616d6500000000000000000000000000000000000000000000000000000081525060400191505060405180910390fd5b897f16738a204080ddf3b15dc5afeb7ef32a395ae565e8321ec8632c514cf2961a318a8a604051808060200180602001838103835285818151815260200191508051906020019080838360005b838110156109e65780820151818401526020810190506109cb565b50505050905090810190601f168015610a135780820380516001836020036101000a031916815260200191505b50838103825284818151815260200191508051906020019080838360005b83811015610a4c578082015181840152602081019050610a31565b50505050905090810190601f168015610a795780820380516001836020036101000a031916815260200191505b5094505050505060405180910390a288600560008c81526020019081526020016000209080519060200190610aaf9291906111bb565b50600360008b8152602001908152602001600020886040518082805190602001908083835b602083101515610af95780518252602082019150602081019050602083039250610ad4565b6001836020036101000a0380198251168184511680821785525050505050509050019150509081526020016040518091039020805480602002602001604051908101604052809291908181526020018280548015610bac57602002820191906000526020600020905b8160009054906101000a900473ffffffffffffffffffffffffffffffffffffffff1673ffffffffffffffffffffffffffffffffffffffff1681526020019060010190808311610b62575b50505050509650600093505b8651841015610c3a57600460008b815260200190815260200160002060008886815181101515610be457fe5b9060200190602002015173ffffffffffffffffffffffffffffffffffffffff1673ffffffffffffffffffffffffffffffffffffffff16815260200190815260200160002054860195508380600101945050610bb8565b6009600a87811515610c4857fe5b04029550600360008b8152602001908152602001600020896040518082805190602001908083835b602083101515610c955780518252602082019150602081019050602083039250610c70565b6001836020036101000a0380198251168184511680821785525050505050509050019150509081526020016040518091039020805480602002602001604051908101604052809291908181526020018280548015610d4857602002820191906000526020600020905b8160009054906101000a900473ffffffffffffffffffffffffffffffffffffffff1673ffffffffffffffffffffffffffffffffffffffff1681526020019060010190808311610cfe575b50505050509250600093505b8251841015610dd657600460008b815260200190815260200160002060008486815181101515610d8057fe5b9060200190602002015173ffffffffffffffffffffffffffffffffffffffff1673ffffffffffffffffffffffffffffffffffffffff16815260200190815260200160002054850194508380600101945050610d54565b600093505b8251841015610f2e57600460008b815260200190815260200160002060008486815181101515610e0757fe5b9060200190602002015173ffffffffffffffffffffffffffffffffffffffff1673ffffffffffffffffffffffffffffffffffffffff1681526020019081526020016000205460018688811515610e5957fe5b04010291508284815181101515610e6c57fe5b9060200190602002015173ffffffffffffffffffffffffffffffffffffffff166108fc839081150290604051600060405180830381858888f19350505050158015610ebb573d6000803e3d6000fd5b508284815181101515610eca57fe5b9060200190602002015173ffffffffffffffffffffffffffffffffffffffff167f9c2270628a9b29d30ae96b6c4c14ed646ee134febdce38a5b77f2bde9cea2e20836040518082815260200191505060405180910390a28380600101945050610ddb565b60016000815480929190600101919050555050505050505050505050565b6060600560008381526020019081526020016000208054600181600116156101000203166002900480601f016020809104026020016040519081016040528092919081815260200182805460018160011615610100020316600290048015610ff55780601f10610fca57610100808354040283529160200191610ff5565b820191906000526020600020905b815481529060010190602001808311610fd857829003601f168201915b50505050509050919050565b6004602052816000526040600020602052806000526040600020600091509150505481565b606060036000848152602001908152602001600020826040518082805190602001908083835b602083101515611071578051825260208201915060208101905060208303925061104c565b6001836020036101000a038019825116818451168082178552505050505050905001915050908152602001604051809103902080548060200260200160405190810160405280929190818152602001828054801561112457602002820191906000526020600020905b8160009054906101000a900473ffffffffffffffffffffffffffffffffffffffff1673ffffffffffffffffffffffffffffffffffffffff16815260200190600101908083116110da575b5050505050905092915050565b600060036000848152602001908152602001600020826040518082805190602001908083835b60208310151561117c5780518252602082019150602081019050602083039250611157565b6001836020036101000a038019825116818451168082178552505050505050905001915050908152602001604051809103902080549050905092915050565b828054600181600116156101000203166002900490600052602060002090601f016020900481019282601f106111fc57805160ff191683800117855561122a565b8280016001018555821561122a579182015b8281111561122957825182559160200191906001019061120e565b5b509050611237919061123b565b5090565b61125d91905b80821115611259576000816000905550600101611241565b5090565b905600a165627a7a72305820ea19b5f880f889d87366a6a1bfb5936fff0cf6bedac33ef0c0e67381af731af30029",
  "source": "pragma solidity ^0.4.23;\r\n\r\nimport \"./Mortal.sol\";\r\n\r\n\r\ncontract IPLGame is Mortal {\r\n\r\n    // State variables\r\n    uint currentGame = 1;\r\n    uint minimumAmount = 1 finney;\r\n    \r\n    // Mappings\r\n    mapping(uint=>mapping(string=>address[])) predictions;\r\n    mapping(uint=>mapping(address=>uint)) public betAmount;\r\n    mapping(uint=>string) Result;\r\n    \r\n    // Events\r\n    event Winner(address indexed winner, uint amount);\r\n    event BetPlaced(address indexed bettor, uint indexed matchId, string team, uint amount);\r\n    event ResultSet(uint indexed matchId, string winningTeamId, string losingTeamId);\r\n\r\n    \r\n    function makeBet(uint _matchId, string _team) public payable {\r\n        require((msg.value >= minimumAmount), \"Minimum bet of 1 finney can be placed.\");\r\n        predictions[_matchId][_team].push(msg.sender);\r\n        betAmount[_matchId][msg.sender] = msg.value;\r\n        emit BetPlaced(msg.sender, _matchId, _team, msg.value);\r\n    }\r\n\r\n    function getPredictions(uint _matchId, string _team) public view returns (address[]) {\r\n        return predictions[_matchId][_team];\r\n    }\r\n\r\n    function getPredictionNumber(uint _matchId, string _team) public view returns (uint) {\r\n        return predictions[_matchId][_team].length;\r\n    }\r\n\r\n    function setResult(uint _matchId, string _winningTeamId, string _losingTeamId) onlyOwner(owner) public {\r\n        require((_matchId == currentGame), \"Only set the results for current game\");\r\n        emit ResultSet(_matchId, _winningTeamId, _losingTeamId);\r\n        Result[_matchId] = _winningTeamId;\r\n        address[] memory losers = predictions[_matchId][_losingTeamId];\r\n        uint toDistribute;\r\n        uint total;\r\n        for(uint i = 0; i < losers.length; i++){\r\n            toDistribute += betAmount[_matchId][losers[i]];\r\n        }\r\n        toDistribute = (toDistribute/10)*9;\r\n\r\n        address[] memory winners = predictions[_matchId][_winningTeamId];\r\n        for(i = 0; i < winners.length; i++){\r\n            total += betAmount[_matchId][winners[i]];\r\n        }\r\n        for(i = 0; i < winners.length; i++){\r\n            uint transferAmount = ((toDistribute/total)+1)*betAmount[_matchId][winners[i]];\r\n            winners[i].transfer(transferAmount);\r\n            emit Winner(winners[i], transferAmount);\r\n        }\r\n        currentGame++;\r\n    }\r\n\r\n    function getResult(uint _matchId) public view returns (string) {\r\n        return Result[_matchId];\r\n    }\r\n\r\n    function playerBalance() public view returns (uint) {\r\n        return msg.sender.balance/(1 finney);\r\n    }\r\n\r\n}",
  "sourcePath": "C:\\Users\\shubham.suyal\\Desktop\\blockchain training\\IPLBettingGame\\contracts\\IPLGame.sol",
  "compiler": {
    "name": "solc",
    "version": "0.4.23+commit.124ca40d.Emscripten.clang"
  },
  "schemaVersion": "2.0.0",
  "updatedAt": "2018-05-14T06:25:00.081Z"
}